{
  "transactions": [
    {
      "hash": "0xeb012f0778ee4a9708e09bdc79e6b30f7496c40135efc3fcd66044fcafed8a5a",
      "transactionType": "CALL",
      "contractName": "MayoBear",
      "contractAddress": "0x3f6c91d57aa4A115346c84aa13e67f33379CD762",
      "function": "transfer(address,uint256)",
      "arguments": [
        "0xaB8C942C388c23A5F66b418347550E1E92123ba3",
        "3738235000000000000000000"
      ],
      "transaction": {
        "type": "0x02",
        "from": "0x391ae0bbfc46e2671e976efbfdb83b01f5701382",
        "to": "0x3f6c91d57aa4a115346c84aa13e67f33379cd762",
        "gas": "0x1136c",
        "value": "0x0",
        "data": "0xa9059cbb000000000000000000000000ab8c942c388c23a5f66b418347550e1e92123ba300000000000000000000000000000000000000000003179a201b121f550c0000",
        "nonce": "0xc",
        "accessList": []
      },
      "additionalContracts": [],
      "isFixedGasLimit": false
    },
    {
      "hash": "0x19f75c40dae21a87f9d0710cbb8aa15c89858dc4452d3304b5098445572afd57",
      "transactionType": "CALL",
      "contractName": "MayoBear",
      "contractAddress": "0x3f6c91d57aa4A115346c84aa13e67f33379CD762",
      "function": "transfer(address,uint256)",
      "arguments": [
        "0x9B2Fd77dBF2AAF29f5a6eD885db6FD99bb74EAd6",
        "3738235000000000000000000"
      ],
      "transaction": {
        "type": "0x02",
        "from": "0x391ae0bbfc46e2671e976efbfdb83b01f5701382",
        "to": "0x3f6c91d57aa4a115346c84aa13e67f33379cd762",
        "gas": "0x18550",
        "value": "0x0",
        "data": "0xa9059cbb0000000000000000000000009b2fd77dbf2aaf29f5a6ed885db6fd99bb74ead600000000000000000000000000000000000000000003179a201b121f550c0000",
        "nonce": "0xd",
        "accessList": []
      },
      "additionalContracts": [],
      "isFixedGasLimit": false
    },
    {
      "hash": "0x2b4658029e3a0a38877924c4ae170ffb8c893ae51b3585459bb47d2bf267113f",
      "transactionType": "CALL",
      "contractName": "MayoBear",
      "contractAddress": "0x3f6c91d57aa4A115346c84aa13e67f33379CD762",
      "function": "transfer(address,uint256)",
      "arguments": [
        "0x25dDb625c18427eE3544613C7df88086e880E5e3",
        "3738235000000000000000000"
      ],
      "transaction": {
        "type": "0x02",
        "from": "0x391ae0bbfc46e2671e976efbfdb83b01f5701382",
        "to": "0x3f6c91d57aa4a115346c84aa13e67f33379cd762",
        "gas": "0x18550",
        "value": "0x0",
        "data": "0xa9059cbb00000000000000000000000025ddb625c18427ee3544613c7df88086e880e5e300000000000000000000000000000000000000000003179a201b121f550c0000",
        "nonce": "0xe",
        "accessList": []
      },
      "additionalContracts": [],
      "isFixedGasLimit": false
    },
    {
      "hash": "0x3348325db5d9a2dbb2980141d57749e8c1293b8926b7333197696eecb3e4603d",
      "transactionType": "CALL",
      "contractName": "MayoBear",
      "contractAddress": "0x3f6c91d57aa4A115346c84aa13e67f33379CD762",
      "function": "transfer(address,uint256)",
      "arguments": [
        "0x01F539c74cBb5463d4a75bCEE48C7B94C2bEc531",
        "3738235000000000000000000"
      ],
      "transaction": {
        "type": "0x02",
        "from": "0x391ae0bbfc46e2671e976efbfdb83b01f5701382",
        "to": "0x3f6c91d57aa4a115346c84aa13e67f33379cd762",
        "gas": "0x18550",
        "value": "0x0",
        "data": "0xa9059cbb00000000000000000000000001f539c74cbb5463d4a75bcee48c7b94c2bec53100000000000000000000000000000000000000000003179a201b121f550c0000",
        "nonce": "0xf",
        "accessList": []
      },
      "additionalContracts": [],
      "isFixedGasLimit": false
    },
    {
      "hash": "0xbd5e960f081cf06057edd9fafa4213536087debc9ee5be1210650493293ed88c",
      "transactionType": "CALL",
      "contractName": "MayoBear",
      "contractAddress": "0x3f6c91d57aa4A115346c84aa13e67f33379CD762",
      "function": "transfer(address,uint256)",
      "arguments": [
        "0x271c91BF067356Fa737EB2A78e218694954a2E99",
        "3738235000000000000000000"
      ],
      "transaction": {
        "type": "0x02",
        "from": "0x391ae0bbfc46e2671e976efbfdb83b01f5701382",
        "to": "0x3f6c91d57aa4a115346c84aa13e67f33379cd762",
        "gas": "0x18550",
        "value": "0x0",
        "data": "0xa9059cbb000000000000000000000000271c91bf067356fa737eb2a78e218694954a2e9900000000000000000000000000000000000000000003179a201b121f550c0000",
        "nonce": "0x10",
        "accessList": []
      },
      "additionalContracts": [],
      "isFixedGasLimit": false
    },
    {
      "hash": "0xec62f18a743e57f51e4467fcfaad8542219444c2646e3224aa749e573f482019",
      "transactionType": "CALL",
      "contractName": "MayoBear",
      "contractAddress": "0x3f6c91d57aa4A115346c84aa13e67f33379CD762",
      "function": "transfer(address,uint256)",
      "arguments": [
        "0x1AB95d8689c4e03351c80CcA861d0ADf35368d9e",
        "3738235000000000000000000"
      ],
      "transaction": {
        "type": "0x02",
        "from": "0x391ae0bbfc46e2671e976efbfdb83b01f5701382",
        "to": "0x3f6c91d57aa4a115346c84aa13e67f33379cd762",
        "gas": "0x18550",
        "value": "0x0",
        "data": "0xa9059cbb0000000000000000000000001ab95d8689c4e03351c80cca861d0adf35368d9e00000000000000000000000000000000000000000003179a201b121f550c0000",
        "nonce": "0x11",
        "accessList": []
      },
      "additionalContracts": [],
      "isFixedGasLimit": false
    },
    {
      "hash": "0xfc324971f371b72afd3cad713a3f150efbd873a95cf80dc18f4f2a3d5a0979af",
      "transactionType": "CALL",
      "contractName": "MayoBear",
      "contractAddress": "0x3f6c91d57aa4A115346c84aa13e67f33379CD762",
      "function": "transfer(address,uint256)",
      "arguments": [
        "0xE1DBa24D7A83B4F0b25Df8f19DC94f90F201fDFA",
        "3738235000000000000000000"
      ],
      "transaction": {
        "type": "0x02",
        "from": "0x391ae0bbfc46e2671e976efbfdb83b01f5701382",
        "to": "0x3f6c91d57aa4a115346c84aa13e67f33379cd762",
        "gas": "0x18550",
        "value": "0x0",
        "data": "0xa9059cbb000000000000000000000000e1dba24d7a83b4f0b25df8f19dc94f90f201fdfa00000000000000000000000000000000000000000003179a201b121f550c0000",
        "nonce": "0x12",
        "accessList": []
      },
      "additionalContracts": [],
      "isFixedGasLimit": false
    },
    {
      "hash": "0x23bb6d189bc7d20e95168b2b007d50942ac2c89e855e46af95e89496107d5c07",
      "transactionType": "CALL",
      "contractName": "MayoBear",
      "contractAddress": "0x3f6c91d57aa4A115346c84aa13e67f33379CD762",
      "function": "transfer(address,uint256)",
      "arguments": [
        "0x100444c7D04A842D19bc3eE63cB7b96682FF3f43",
        "3738235000000000000000000"
      ],
      "transaction": {
        "type": "0x02",
        "from": "0x391ae0bbfc46e2671e976efbfdb83b01f5701382",
        "to": "0x3f6c91d57aa4a115346c84aa13e67f33379cd762",
        "gas": "0x18550",
        "value": "0x0",
        "data": "0xa9059cbb000000000000000000000000100444c7d04a842d19bc3ee63cb7b96682ff3f4300000000000000000000000000000000000000000003179a201b121f550c0000",
        "nonce": "0x13",
        "accessList": []
      },
      "additionalContracts": [],
      "isFixedGasLimit": false
    },
    {
      "hash": "0x2726914dda5c4081b561c001ae4cea02a1363ecd1bac505ffc66b0bba583e523",
      "transactionType": "CALL",
      "contractName": "MayoBear",
      "contractAddress": "0x3f6c91d57aa4A115346c84aa13e67f33379CD762",
      "function": "transfer(address,uint256)",
      "arguments": [
        "0x0B0d524c560093949FC99201e032AF78373AbDd6",
        "3738235000000000000000000"
      ],
      "transaction": {
        "type": "0x02",
        "from": "0x391ae0bbfc46e2671e976efbfdb83b01f5701382",
        "to": "0x3f6c91d57aa4a115346c84aa13e67f33379cd762",
        "gas": "0x16f9e",
        "value": "0x0",
        "data": "0xa9059cbb0000000000000000000000000b0d524c560093949fc99201e032af78373abdd600000000000000000000000000000000000000000003179a201b121f550c0000",
        "nonce": "0x14",
        "accessList": []
      },
      "additionalContracts": [],
      "isFixedGasLimit": false
    },
    {
      "hash": "0xf3d3464ce2aca267d73ce7f60bef0425815d5f661da29fc28d9eb11d2b180be9",
      "transactionType": "CALL",
      "contractName": "MayoBear",
      "contractAddress": "0x3f6c91d57aa4A115346c84aa13e67f33379CD762",
      "function": "transfer(address,uint256)",
      "arguments": [
        "0xCC45e7e747e7285C9A45738c61Bf155946CC7aB2",
        "3738235000000000000000000"
      ],
      "transaction": {
        "type": "0x02",
        "from": "0x391ae0bbfc46e2671e976efbfdb83b01f5701382",
        "to": "0x3f6c91d57aa4a115346c84aa13e67f33379cd762",
        "gas": "0x1136c",
        "value": "0x0",
        "data": "0xa9059cbb000000000000000000000000cc45e7e747e7285c9a45738c61bf155946cc7ab200000000000000000000000000000000000000000003179a201b121f550c0000",
        "nonce": "0x15",
        "accessList": []
      },
      "additionalContracts": [],
      "isFixedGasLimit": false
    },
    {
      "hash": "0x4ea7dae64b72b872d8cec3b46a602ac6fd766b9364c53b18d292d1ae0fc3a927",
      "transactionType": "CALL",
      "contractName": "MayoBear",
      "contractAddress": "0x3f6c91d57aa4A115346c84aa13e67f33379CD762",
      "function": "transfer(address,uint256)",
      "arguments": [
        "0xCd10F8461077A014A38886347dFdD4a9ACd109e5",
        "3738235000000000000000000"
      ],
      "transaction": {
        "type": "0x02",
        "from": "0x391ae0bbfc46e2671e976efbfdb83b01f5701382",
        "to": "0x3f6c91d57aa4a115346c84aa13e67f33379cd762",
        "gas": "0x18550",
        "value": "0x0",
        "data": "0xa9059cbb000000000000000000000000cd10f8461077a014a38886347dfdd4a9acd109e500000000000000000000000000000000000000000003179a201b121f550c0000",
        "nonce": "0x16",
        "accessList": []
      },
      "additionalContracts": [],
      "isFixedGasLimit": false
    },
    {
      "hash": "0xe9d780551f93c4c1be09eadb5a6d5c5b7b66954bd9203be6ea1f11aee91b4433",
      "transactionType": "CALL",
      "contractName": "MayoBear",
      "contractAddress": "0x3f6c91d57aa4A115346c84aa13e67f33379CD762",
      "function": "transfer(address,uint256)",
      "arguments": [
        "0x7b92AfF581099FFf3884aF90a5036346F747040B",
        "3738235000000000000000000"
      ],
      "transaction": {
        "type": "0x02",
        "from": "0x391ae0bbfc46e2671e976efbfdb83b01f5701382",
        "to": "0x3f6c91d57aa4a115346c84aa13e67f33379cd762",
        "gas": "0x18550",
        "value": "0x0",
        "data": "0xa9059cbb0000000000000000000000007b92aff581099fff3884af90a5036346f747040b00000000000000000000000000000000000000000003179a201b121f550c0000",
        "nonce": "0x17",
        "accessList": []
      },
      "additionalContracts": [],
      "isFixedGasLimit": false
    },
    {
      "hash": "0x47400a68b07f9ce39309eb0a355656a0b8bf077dbcabbe00ff5fd45e595fbfb9",
      "transactionType": "CALL",
      "contractName": "MayoBear",
      "contractAddress": "0x3f6c91d57aa4A115346c84aa13e67f33379CD762",
      "function": "transfer(address,uint256)",
      "arguments": [
        "0x3eCA742EC944dfA23985040d71f5e2DC546290E8",
        "3738235000000000000000000"
      ],
      "transaction": {
        "type": "0x02",
        "from": "0x391ae0bbfc46e2671e976efbfdb83b01f5701382",
        "to": "0x3f6c91d57aa4a115346c84aa13e67f33379cd762",
        "gas": "0x18550",
        "value": "0x0",
        "data": "0xa9059cbb0000000000000000000000003eca742ec944dfa23985040d71f5e2dc546290e800000000000000000000000000000000000000000003179a201b121f550c0000",
        "nonce": "0x18",
        "accessList": []
      },
      "additionalContracts": [],
      "isFixedGasLimit": false
    },
    {
      "hash": "0xdfdccab3f6d7a13ccda0ea99602289a3c00185685b2a2be74572b2fbaea96f21",
      "transactionType": "CALL",
      "contractName": "MayoBear",
      "contractAddress": "0x3f6c91d57aa4A115346c84aa13e67f33379CD762",
      "function": "transfer(address,uint256)",
      "arguments": [
        "0x9c93437D08622b0aC83A7dD7F6125124448C3b0a",
        "3738235000000000000000000"
      ],
      "transaction": {
        "type": "0x02",
        "from": "0x391ae0bbfc46e2671e976efbfdb83b01f5701382",
        "to": "0x3f6c91d57aa4a115346c84aa13e67f33379cd762",
        "gas": "0x18550",
        "value": "0x0",
        "data": "0xa9059cbb0000000000000000000000009c93437d08622b0ac83a7dd7f6125124448c3b0a00000000000000000000000000000000000000000003179a201b121f550c0000",
        "nonce": "0x19",
        "accessList": []
      },
      "additionalContracts": [],
      "isFixedGasLimit": false
    },
    {
      "hash": "0xd71a459242ef96ea07333c1e278a2263e7ac9d7a8d2cba81940d472281005e9c",
      "transactionType": "CALL",
      "contractName": "MayoBear",
      "contractAddress": "0x3f6c91d57aa4A115346c84aa13e67f33379CD762",
      "function": "transfer(address,uint256)",
      "arguments": [
        "0xB84a30fB48f65063Ba7B013274F7d303c63f9f4a",
        "3738235000000000000000000"
      ],
      "transaction": {
        "type": "0x02",
        "from": "0x391ae0bbfc46e2671e976efbfdb83b01f5701382",
        "to": "0x3f6c91d57aa4a115346c84aa13e67f33379cd762",
        "gas": "0x18550",
        "value": "0x0",
        "data": "0xa9059cbb000000000000000000000000b84a30fb48f65063ba7b013274f7d303c63f9f4a00000000000000000000000000000000000000000003179a201b121f550c0000",
        "nonce": "0x1a",
        "accessList": []
      },
      "additionalContracts": [],
      "isFixedGasLimit": false
    },
    {
      "hash": "0xc1986112e0eaa2d342f45eae67b0d95d63993ddff68f152e2b36fa9d8c63b08c",
      "transactionType": "CALL",
      "contractName": "MayoBear",
      "contractAddress": "0x3f6c91d57aa4A115346c84aa13e67f33379CD762",
      "function": "transfer(address,uint256)",
      "arguments": [
        "0x7Fe5a3679f71987b3b23E683Cc8CCA3FdBA28235",
        "3738235000000000000000000"
      ],
      "transaction": {
        "type": "0x02",
        "from": "0x391ae0bbfc46e2671e976efbfdb83b01f5701382",
        "to": "0x3f6c91d57aa4a115346c84aa13e67f33379cd762",
        "gas": "0x18550",
        "value": "0x0",
        "data": "0xa9059cbb0000000000000000000000007fe5a3679f71987b3b23e683cc8cca3fdba2823500000000000000000000000000000000000000000003179a201b121f550c0000",
        "nonce": "0x1b",
        "accessList": []
      },
      "additionalContracts": [],
      "isFixedGasLimit": false
    },
    {
      "hash": "0xe351bafab43a349cf72f14f5d0e4381e20fad720a35e02b42ca0b9cff0eddfec",
      "transactionType": "CALL",
      "contractName": "MayoBear",
      "contractAddress": "0x3f6c91d57aa4A115346c84aa13e67f33379CD762",
      "function": "transfer(address,uint256)",
      "arguments": [
        "0xd711B5F1DF62Fb91F8921aec68f670B04E84FdA7",
        "3738235000000000000000000"
      ],
      "transaction": {
        "type": "0x02",
        "from": "0x391ae0bbfc46e2671e976efbfdb83b01f5701382",
        "to": "0x3f6c91d57aa4a115346c84aa13e67f33379cd762",
        "gas": "0x18550",
        "value": "0x0",
        "data": "0xa9059cbb000000000000000000000000d711b5f1df62fb91f8921aec68f670b04e84fda700000000000000000000000000000000000000000003179a201b121f550c0000",
        "nonce": "0x1c",
        "accessList": []
      },
      "additionalContracts": [],
      "isFixedGasLimit": false
    },
    {
      "hash": "0xfb6044e0d5cb43a70362ec57f0b64e135d1b6a4a44b9d9049650228c28737f6e",
      "transactionType": "CALL",
      "contractName": "MayoBear",
      "contractAddress": "0x3f6c91d57aa4A115346c84aa13e67f33379CD762",
      "function": "transfer(address,uint256)",
      "arguments": [
        "0x64dCe143ae1bBFc6BdEee6Db50810337C0dCd260",
        "3738235000000000000000000"
      ],
      "transaction": {
        "type": "0x02",
        "from": "0x391ae0bbfc46e2671e976efbfdb83b01f5701382",
        "to": "0x3f6c91d57aa4a115346c84aa13e67f33379cd762",
        "gas": "0x18550",
        "value": "0x0",
        "data": "0xa9059cbb00000000000000000000000064dce143ae1bbfc6bdeee6db50810337c0dcd26000000000000000000000000000000000000000000003179a201b121f550c0000",
        "nonce": "0x1d",
        "accessList": []
      },
      "additionalContracts": [],
      "isFixedGasLimit": false
    },
    {
      "hash": "0x942d0f2694f772f8db0d44b4f765d2251ea617c90e85008e6c5431103a1aa1aa",
      "transactionType": "CALL",
      "contractName": "MayoBear",
      "contractAddress": "0x3f6c91d57aa4A115346c84aa13e67f33379CD762",
      "function": "transfer(address,uint256)",
      "arguments": [
        "0x8bAAb85939bd17f8F0b69EEac72e6D16A4000ad0",
        "3738235000000000000000000"
      ],
      "transaction": {
        "type": "0x02",
        "from": "0x391ae0bbfc46e2671e976efbfdb83b01f5701382",
        "to": "0x3f6c91d57aa4a115346c84aa13e67f33379cd762",
        "gas": "0x16f9e",
        "value": "0x0",
        "data": "0xa9059cbb0000000000000000000000008baab85939bd17f8f0b69eeac72e6d16a4000ad000000000000000000000000000000000000000000003179a201b121f550c0000",
        "nonce": "0x1e",
        "accessList": []
      },
      "additionalContracts": [],
      "isFixedGasLimit": false
    },
    {
      "hash": "0x69c07e79fa666ed16e06bad2f657241b58beccc472978fef564d392b1ee1f789",
      "transactionType": "CALL",
      "contractName": "MayoBear",
      "contractAddress": "0x3f6c91d57aa4A115346c84aa13e67f33379CD762",
      "function": "transfer(address,uint256)",
      "arguments": [
        "0x0E3802B04831cF0650239EA4Bc1895aAd7B0742A",
        "3738235000000000000000000"
      ],
      "transaction": {
        "type": "0x02",
        "from": "0x391ae0bbfc46e2671e976efbfdb83b01f5701382",
        "to": "0x3f6c91d57aa4a115346c84aa13e67f33379cd762",
        "gas": "0x18550",
        "value": "0x0",
        "data": "0xa9059cbb0000000000000000000000000e3802b04831cf0650239ea4bc1895aad7b0742a00000000000000000000000000000000000000000003179a201b121f550c0000",
        "nonce": "0x1f",
        "accessList": []
      },
      "additionalContracts": [],
      "isFixedGasLimit": false
    },
    {
      "hash": "0xa36652a92c3d69c910503c562a9068596e73786141dd734d2429b3ad9a61c4d5",
      "transactionType": "CALL",
      "contractName": "MayoBear",
      "contractAddress": "0x3f6c91d57aa4A115346c84aa13e67f33379CD762",
      "function": "transfer(address,uint256)",
      "arguments": [
        "0x992c96C0593a823e78B26c1b3471C806883471c2",
        "3738235000000000000000000"
      ],
      "transaction": {
        "type": "0x02",
        "from": "0x391ae0bbfc46e2671e976efbfdb83b01f5701382",
        "to": "0x3f6c91d57aa4a115346c84aa13e67f33379cd762",
        "gas": "0x18550",
        "value": "0x0",
        "data": "0xa9059cbb000000000000000000000000992c96c0593a823e78b26c1b3471c806883471c200000000000000000000000000000000000000000003179a201b121f550c0000",
        "nonce": "0x20",
        "accessList": []
      },
      "additionalContracts": [],
      "isFixedGasLimit": false
    },
    {
      "hash": "0x1c230bed07ac0c4a983e061a76e39c7cdbd265230a26692797d508591a475201",
      "transactionType": "CALL",
      "contractName": "MayoBear",
      "contractAddress": "0x3f6c91d57aa4A115346c84aa13e67f33379CD762",
      "function": "transfer(address,uint256)",
      "arguments": [
        "0x7eF613b1B7e8b1D6a2f61ba3B0F2BCEF73B27bc1",
        "3738235000000000000000000"
      ],
      "transaction": {
        "type": "0x02",
        "from": "0x391ae0bbfc46e2671e976efbfdb83b01f5701382",
        "to": "0x3f6c91d57aa4a115346c84aa13e67f33379cd762",
        "gas": "0x18550",
        "value": "0x0",
        "data": "0xa9059cbb0000000000000000000000007ef613b1b7e8b1d6a2f61ba3b0f2bcef73b27bc100000000000000000000000000000000000000000003179a201b121f550c0000",
        "nonce": "0x21",
        "accessList": []
      },
      "additionalContracts": [],
      "isFixedGasLimit": false
    },
    {
      "hash": "0x304c22275788f1b980a28c3a3c39d10b80335b462b32212afdb43cdb952018c5",
      "transactionType": "CALL",
      "contractName": "MayoBear",
      "contractAddress": "0x3f6c91d57aa4A115346c84aa13e67f33379CD762",
      "function": "transfer(address,uint256)",
      "arguments": [
        "0x0288aED2E6a103da7853eFc1e4027a87ac769f21",
        "3738235000000000000000000"
      ],
      "transaction": {
        "type": "0x02",
        "from": "0x391ae0bbfc46e2671e976efbfdb83b01f5701382",
        "to": "0x3f6c91d57aa4a115346c84aa13e67f33379cd762",
        "gas": "0x18550",
        "value": "0x0",
        "data": "0xa9059cbb0000000000000000000000000288aed2e6a103da7853efc1e4027a87ac769f2100000000000000000000000000000000000000000003179a201b121f550c0000",
        "nonce": "0x22",
        "accessList": []
      },
      "additionalContracts": [],
      "isFixedGasLimit": false
    },
    {
      "hash": "0xcba0c084aef4a00189014319549198a81eee74bddd5a997f7f30c15feca39a7a",
      "transactionType": "CALL",
      "contractName": "MayoBear",
      "contractAddress": "0x3f6c91d57aa4A115346c84aa13e67f33379CD762",
      "function": "transfer(address,uint256)",
      "arguments": [
        "0x0E71668a349EF86913B9F25A683Dd74762231893",
        "3738235000000000000000000"
      ],
      "transaction": {
        "type": "0x02",
        "from": "0x391ae0bbfc46e2671e976efbfdb83b01f5701382",
        "to": "0x3f6c91d57aa4a115346c84aa13e67f33379cd762",
        "gas": "0x18550",
        "value": "0x0",
        "data": "0xa9059cbb0000000000000000000000000e71668a349ef86913b9f25a683dd7476223189300000000000000000000000000000000000000000003179a201b121f550c0000",
        "nonce": "0x23",
        "accessList": []
      },
      "additionalContracts": [],
      "isFixedGasLimit": false
    },
    {
      "hash": "0x8be18dabbaaca3ef7bf4f03ea43aa2d8256fc6b72ce822346b6487fe48ce2545",
      "transactionType": "CALL",
      "contractName": "MayoBear",
      "contractAddress": "0x3f6c91d57aa4A115346c84aa13e67f33379CD762",
      "function": "transfer(address,uint256)",
      "arguments": [
        "0x7182eE9406c495A62b09a93caa42E87CEC5EAc8B",
        "3738235000000000000000000"
      ],
      "transaction": {
        "type": "0x02",
        "from": "0x391ae0bbfc46e2671e976efbfdb83b01f5701382",
        "to": "0x3f6c91d57aa4a115346c84aa13e67f33379cd762",
        "gas": "0x18550",
        "value": "0x0",
        "data": "0xa9059cbb0000000000000000000000007182ee9406c495a62b09a93caa42e87cec5eac8b00000000000000000000000000000000000000000003179a201b121f550c0000",
        "nonce": "0x24",
        "accessList": []
      },
      "additionalContracts": [],
      "isFixedGasLimit": false
    },
    {
      "hash": "0x40a46bc84d4214adf2da8f3b1d00931550610b1224f3ff66bbe6df8c9bf850d8",
      "transactionType": "CALL",
      "contractName": "MayoBear",
      "contractAddress": "0x3f6c91d57aa4A115346c84aa13e67f33379CD762",
      "function": "transfer(address,uint256)",
      "arguments": [
        "0x066f031dec198b5230C49978F1385F67e6cC41F3",
        "3738235000000000000000000"
      ],
      "transaction": {
        "type": "0x02",
        "from": "0x391ae0bbfc46e2671e976efbfdb83b01f5701382",
        "to": "0x3f6c91d57aa4a115346c84aa13e67f33379cd762",
        "gas": "0x18550",
        "value": "0x0",
        "data": "0xa9059cbb000000000000000000000000066f031dec198b5230c49978f1385f67e6cc41f300000000000000000000000000000000000000000003179a201b121f550c0000",
        "nonce": "0x25",
        "accessList": []
      },
      "additionalContracts": [],
      "isFixedGasLimit": false
    },
    {
      "hash": "0x5a57432469b5c8d3587db31293402816c71884a1894412ad71c0c20e9965b328",
      "transactionType": "CALL",
      "contractName": "MayoBear",
      "contractAddress": "0x3f6c91d57aa4A115346c84aa13e67f33379CD762",
      "function": "transfer(address,uint256)",
      "arguments": [
        "0x4C78e1e3B92923C9B814e47f6486a72d450Ec78e",
        "3738235000000000000000000"
      ],
      "transaction": {
        "type": "0x02",
        "from": "0x391ae0bbfc46e2671e976efbfdb83b01f5701382",
        "to": "0x3f6c91d57aa4a115346c84aa13e67f33379cd762",
        "gas": "0x18550",
        "value": "0x0",
        "data": "0xa9059cbb0000000000000000000000004c78e1e3b92923c9b814e47f6486a72d450ec78e00000000000000000000000000000000000000000003179a201b121f550c0000",
        "nonce": "0x26",
        "accessList": []
      },
      "additionalContracts": [],
      "isFixedGasLimit": false
    },
    {
      "hash": "0x82969916cf7f78a81247e3485c8aedc2880240119b0a8324998f32f971f4baa5",
      "transactionType": "CALL",
      "contractName": "MayoBear",
      "contractAddress": "0x3f6c91d57aa4A115346c84aa13e67f33379CD762",
      "function": "transfer(address,uint256)",
      "arguments": [
        "0xe845a4960B3421217a72195BFdDd8611b8bc59E4",
        "3738235000000000000000000"
      ],
      "transaction": {
        "type": "0x02",
        "from": "0x391ae0bbfc46e2671e976efbfdb83b01f5701382",
        "to": "0x3f6c91d57aa4a115346c84aa13e67f33379cd762",
        "gas": "0x18550",
        "value": "0x0",
        "data": "0xa9059cbb000000000000000000000000e845a4960b3421217a72195bfddd8611b8bc59e400000000000000000000000000000000000000000003179a201b121f550c0000",
        "nonce": "0x27",
        "accessList": []
      },
      "additionalContracts": [],
      "isFixedGasLimit": false
    },
    {
      "hash": "0x763d176da7871a9d9f8c35c84c5b99383a25f264768a53d7ba13aa2c47d60a53",
      "transactionType": "CALL",
      "contractName": "MayoBear",
      "contractAddress": "0x3f6c91d57aa4A115346c84aa13e67f33379CD762",
      "function": "transfer(address,uint256)",
      "arguments": [
        "0x51A132Ea95A8d5103e9A463136D759824F268c09",
        "3738235000000000000000000"
      ],
      "transaction": {
        "type": "0x02",
        "from": "0x391ae0bbfc46e2671e976efbfdb83b01f5701382",
        "to": "0x3f6c91d57aa4a115346c84aa13e67f33379cd762",
        "gas": "0x18550",
        "value": "0x0",
        "data": "0xa9059cbb00000000000000000000000051a132ea95a8d5103e9a463136d759824f268c0900000000000000000000000000000000000000000003179a201b121f550c0000",
        "nonce": "0x28",
        "accessList": []
      },
      "additionalContracts": [],
      "isFixedGasLimit": false
    },
    {
      "hash": "0x106fb434eaf8edb6c2f75f45dcc6eaed81c74ede2c4b20826ab05bd4f1cd65c9",
      "transactionType": "CALL",
      "contractName": "MayoBear",
      "contractAddress": "0x3f6c91d57aa4A115346c84aa13e67f33379CD762",
      "function": "transfer(address,uint256)",
      "arguments": [
        "0xa278eEfB6a2A3A005cc2d84373ffAc2c7eb2fcAe",
        "3738235000000000000000000"
      ],
      "transaction": {
        "type": "0x02",
        "from": "0x391ae0bbfc46e2671e976efbfdb83b01f5701382",
        "to": "0x3f6c91d57aa4a115346c84aa13e67f33379cd762",
        "gas": "0x16f9e",
        "value": "0x0",
        "data": "0xa9059cbb000000000000000000000000a278eefb6a2a3a005cc2d84373ffac2c7eb2fcae00000000000000000000000000000000000000000003179a201b121f550c0000",
        "nonce": "0x29",
        "accessList": []
      },
      "additionalContracts": [],
      "isFixedGasLimit": false
    },
    {
      "hash": "0x990b70aa0cd3fb5f235116948ab740fe39ac420ef7949cd0c4dc397cd6e674da",
      "transactionType": "CALL",
      "contractName": "MayoBear",
      "contractAddress": "0x3f6c91d57aa4A115346c84aa13e67f33379CD762",
      "function": "transfer(address,uint256)",
      "arguments": [
        "0xfBD11faF9b01B0f6f0d3Cd312B76b2065B2CF709",
        "3738235000000000000000000"
      ],
      "transaction": {
        "type": "0x02",
        "from": "0x391ae0bbfc46e2671e976efbfdb83b01f5701382",
        "to": "0x3f6c91d57aa4a115346c84aa13e67f33379cd762",
        "gas": "0x18550",
        "value": "0x0",
        "data": "0xa9059cbb000000000000000000000000fbd11faf9b01b0f6f0d3cd312b76b2065b2cf70900000000000000000000000000000000000000000003179a201b121f550c0000",
        "nonce": "0x2a",
        "accessList": []
      },
      "additionalContracts": [],
      "isFixedGasLimit": false
    },
    {
      "hash": "0x7c30a0ebcc288a5577e23814d3b37e5684facb135a1cb89f0a87c951aef6e05d",
      "transactionType": "CALL",
      "contractName": "MayoBear",
      "contractAddress": "0x3f6c91d57aa4A115346c84aa13e67f33379CD762",
      "function": "transfer(address,uint256)",
      "arguments": [
        "0x8b233deA5C4a816b3b81F3d7f607AC68Ada54495",
        "3738235000000000000000000"
      ],
      "transaction": {
        "type": "0x02",
        "from": "0x391ae0bbfc46e2671e976efbfdb83b01f5701382",
        "to": "0x3f6c91d57aa4a115346c84aa13e67f33379cd762",
        "gas": "0x1136c",
        "value": "0x0",
        "data": "0xa9059cbb0000000000000000000000008b233dea5c4a816b3b81f3d7f607ac68ada5449500000000000000000000000000000000000000000003179a201b121f550c0000",
        "nonce": "0x2b",
        "accessList": []
      },
      "additionalContracts": [],
      "isFixedGasLimit": false
    },
    {
      "hash": "0x7825e1272cdbee51355408991f72b0c98d05eaaba8a2af9771e25fd0427e4220",
      "transactionType": "CALL",
      "contractName": "MayoBear",
      "contractAddress": "0x3f6c91d57aa4A115346c84aa13e67f33379CD762",
      "function": "transfer(address,uint256)",
      "arguments": [
        "0xb3F91ca47F90046E5AC54241E422cDdbb105633B",
        "3738235000000000000000000"
      ],
      "transaction": {
        "type": "0x02",
        "from": "0x391ae0bbfc46e2671e976efbfdb83b01f5701382",
        "to": "0x3f6c91d57aa4a115346c84aa13e67f33379cd762",
        "gas": "0x18550",
        "value": "0x0",
        "data": "0xa9059cbb000000000000000000000000b3f91ca47f90046e5ac54241e422cddbb105633b00000000000000000000000000000000000000000003179a201b121f550c0000",
        "nonce": "0x2c",
        "accessList": []
      },
      "additionalContracts": [],
      "isFixedGasLimit": false
    },
    {
      "hash": null,
      "transactionType": "CALL",
      "contractName": "MayoBear",
      "contractAddress": "0x3f6c91d57aa4A115346c84aa13e67f33379CD762",
      "function": "transfer(address,uint256)",
      "arguments": [
        "0x4D437fEB60094B6fd2E18854622E093d738E273e",
        "3738235000000000000000000"
      ],
      "transaction": {
        "type": "0x02",
        "from": "0x391ae0bbfc46e2671e976efbfdb83b01f5701382",
        "to": "0x3f6c91d57aa4a115346c84aa13e67f33379cd762",
        "gas": "0x18550",
        "value": "0x0",
        "data": "0xa9059cbb0000000000000000000000004d437feb60094b6fd2e18854622e093d738e273e00000000000000000000000000000000000000000003179a201b121f550c0000",
        "nonce": "0x2d",
        "accessList": []
      },
      "additionalContracts": [],
      "isFixedGasLimit": false
    }
  ],
  "receipts": [],
  "libraries": [],
  "pending": [
    "0xeb012f0778ee4a9708e09bdc79e6b30f7496c40135efc3fcd66044fcafed8a5a",
    "0x19f75c40dae21a87f9d0710cbb8aa15c89858dc4452d3304b5098445572afd57",
    "0x2b4658029e3a0a38877924c4ae170ffb8c893ae51b3585459bb47d2bf267113f",
    "0x3348325db5d9a2dbb2980141d57749e8c1293b8926b7333197696eecb3e4603d",
    "0xbd5e960f081cf06057edd9fafa4213536087debc9ee5be1210650493293ed88c",
    "0xec62f18a743e57f51e4467fcfaad8542219444c2646e3224aa749e573f482019",
    "0xfc324971f371b72afd3cad713a3f150efbd873a95cf80dc18f4f2a3d5a0979af",
    "0x23bb6d189bc7d20e95168b2b007d50942ac2c89e855e46af95e89496107d5c07",
    "0x2726914dda5c4081b561c001ae4cea02a1363ecd1bac505ffc66b0bba583e523",
    "0xf3d3464ce2aca267d73ce7f60bef0425815d5f661da29fc28d9eb11d2b180be9",
    "0x4ea7dae64b72b872d8cec3b46a602ac6fd766b9364c53b18d292d1ae0fc3a927",
    "0xe9d780551f93c4c1be09eadb5a6d5c5b7b66954bd9203be6ea1f11aee91b4433",
    "0x47400a68b07f9ce39309eb0a355656a0b8bf077dbcabbe00ff5fd45e595fbfb9",
    "0xdfdccab3f6d7a13ccda0ea99602289a3c00185685b2a2be74572b2fbaea96f21",
    "0xd71a459242ef96ea07333c1e278a2263e7ac9d7a8d2cba81940d472281005e9c",
    "0xc1986112e0eaa2d342f45eae67b0d95d63993ddff68f152e2b36fa9d8c63b08c",
    "0xe351bafab43a349cf72f14f5d0e4381e20fad720a35e02b42ca0b9cff0eddfec",
    "0xfb6044e0d5cb43a70362ec57f0b64e135d1b6a4a44b9d9049650228c28737f6e",
    "0x942d0f2694f772f8db0d44b4f765d2251ea617c90e85008e6c5431103a1aa1aa",
    "0x69c07e79fa666ed16e06bad2f657241b58beccc472978fef564d392b1ee1f789",
    "0xa36652a92c3d69c910503c562a9068596e73786141dd734d2429b3ad9a61c4d5",
    "0x1c230bed07ac0c4a983e061a76e39c7cdbd265230a26692797d508591a475201",
    "0x304c22275788f1b980a28c3a3c39d10b80335b462b32212afdb43cdb952018c5",
    "0xcba0c084aef4a00189014319549198a81eee74bddd5a997f7f30c15feca39a7a",
    "0x8be18dabbaaca3ef7bf4f03ea43aa2d8256fc6b72ce822346b6487fe48ce2545",
    "0x40a46bc84d4214adf2da8f3b1d00931550610b1224f3ff66bbe6df8c9bf850d8",
    "0x5a57432469b5c8d3587db31293402816c71884a1894412ad71c0c20e9965b328",
    "0x82969916cf7f78a81247e3485c8aedc2880240119b0a8324998f32f971f4baa5",
    "0x763d176da7871a9d9f8c35c84c5b99383a25f264768a53d7ba13aa2c47d60a53",
    "0x106fb434eaf8edb6c2f75f45dcc6eaed81c74ede2c4b20826ab05bd4f1cd65c9",
    "0x990b70aa0cd3fb5f235116948ab740fe39ac420ef7949cd0c4dc397cd6e674da",
    "0x7c30a0ebcc288a5577e23814d3b37e5684facb135a1cb89f0a87c951aef6e05d",
    "0x7825e1272cdbee51355408991f72b0c98d05eaaba8a2af9771e25fd0427e4220"
  ],
  "returns": {},
  "timestamp": 1710326759,
  "chain": 1,
  "multi": false,
  "commit": "1384507"
}