{
  "transactions": [
    {
      "hash": "0x72566454c7f1b10a7403ccc1cf26ec9dc722478a7714f3ebdca183c09669ab9c",
      "transactionType": "CALL",
      "contractName": "MayoBear",
      "contractAddress": "0x3f6c91d57aa4A115346c84aa13e67f33379CD762",
      "function": "transfer(address,uint256)",
      "arguments": [
        "0x4D437fEB60094B6fd2E18854622E093d738E273e",
        "3738235000000000000000000"
      ],
      "transaction": {
        "type": "0x02",
        "from": "0x391ae0bbfc46e2671e976efbfdb83b01f5701382",
        "to": "0x3f6c91d57aa4a115346c84aa13e67f33379cd762",
        "gas": "0x18550",
        "value": "0x0",
        "data": "0xa9059cbb0000000000000000000000004d437feb60094b6fd2e18854622e093d738e273e00000000000000000000000000000000000000000003179a201b121f550c0000",
        "nonce": "0x2d",
        "accessList": []
      },
      "additionalContracts": [],
      "isFixedGasLimit": false
    }
  ],
  "receipts": [
    {
      "transactionHash": "0x72566454c7f1b10a7403ccc1cf26ec9dc722478a7714f3ebdca183c09669ab9c",
      "transactionIndex": "0xe",
      "blockHash": "0x78828111461b5782bd31daa9d699f7d901d031c07039940385f2ee57b1b4dd5d",
      "blockNumber": "0x12869e0",
      "from": "0x391AE0bbFc46E2671E976efbfdB83b01F5701382",
      "to": "0x3f6c91d57aa4A115346c84aa13e67f33379CD762",
      "cumulativeGasUsed": "0xc0393",
      "gasUsed": "0x10a33",
      "contractAddress": null,
      "logs": [
        {
          "address": "0x3f6c91d57aa4A115346c84aa13e67f33379CD762",
          "topics": [
            "0xddf252ad1be2c89b69c2b068fc378daa952ba7f163c4a11628f55a4df523b3ef",
            "0x000000000000000000000000391ae0bbfc46e2671e976efbfdb83b01f5701382",
            "0x0000000000000000000000004d437feb60094b6fd2e18854622e093d738e273e"
          ],
          "data": "0x00000000000000000000000000000000000000000003179a201b121f550c0000",
          "blockHash": "0x78828111461b5782bd31daa9d699f7d901d031c07039940385f2ee57b1b4dd5d",
          "blockNumber": "0x12869e0",
          "transactionHash": "0x72566454c7f1b10a7403ccc1cf26ec9dc722478a7714f3ebdca183c09669ab9c",
          "transactionIndex": "0xe",
          "logIndex": "0xd",
          "removed": false
        }
      ],
      "status": "0x1",
      "logsBloom": "0x00000000000000000200000000000000000000000000000000000000000800000000000000000000000000000000000000000000000000000000000020000000000000000000000400000008000000000000000100000000000000000000000000000000000000000000000000000000000000000000000000000010000000000000000000000000000000000000000000000000000000000000000010000000000000000000000000000000000000000000000000000000000000000000000000000402000000000000000000000000000000000000000000000000000400000000000000000000000000000000000000000000008000000000000000000000",
      "type": "0x2",
      "effectiveGasPrice": "0x11f13bd346"
    }
  ],
  "libraries": [],
  "pending": [],
  "returns": {},
  "timestamp": 1710328190,
  "chain": 1,
  "multi": false,
  "commit": "1384507"
}