{
  "transactions": [
    {
      "hash": null,
      "transactionType": "CALL",
      "contractName": "MayoBear",
      "contractAddress": "0x3f6c91d57aa4A115346c84aa13e67f33379CD762",
      "function": "transfer(address,uint256)",
      "arguments": [
        "0x000000000000000000000000000000000000dEaD",
        "201000000000000000000000000"
      ],
      "transaction": {
        "type": "0x02",
        "from": "0x391ae0bbfc46e2671e976efbfdb83b01f5701382",
        "to": "0x3f6c91d57aa4a115346c84aa13e67f33379cd762",
        "gas": "0x18f5e",
        "value": "0x0",
        "data": "0xa9059cbb000000000000000000000000000000000000000000000000000000000000dead000000000000000000000000000000000000000000a64367d55ee69369000000",
        "nonce": "0xb",
        "accessList": []
      },
      "additionalContracts": [],
      "isFixedGasLimit": false
    }
  ],
  "receipts": [],
  "libraries": [],
  "pending": [],
  "returns": {},
  "timestamp": 1710320042,
  "chain": 1,
  "multi": false,
  "commit": "1384507"
}